{
  "contractName": "DOCTokenConfig",
  "abi": [
    {
      "constant": true,
      "inputs": [],
      "name": "TOKEN_NAME",
      "outputs": [
        {
          "name": "",
          "type": "string"
        }
      ],
      "payable": false,
      "stateMutability": "view",
      "type": "function"
    },
    {
      "constant": true,
      "inputs": [],
      "name": "PUBLIC_RESERVED_PERSENTAGE",
      "outputs": [
        {
          "name": "",
          "type": "uint256"
        }
      ],
      "payable": false,
      "stateMutability": "view",
      "type": "function"
    },
    {
      "constant": true,
      "inputs": [],
      "name": "TOKEN_SYMBOL",
      "outputs": [
        {
          "name": "",
          "type": "string"
        }
      ],
      "payable": false,
      "stateMutability": "view",
      "type": "function"
    },
    {
      "constant": true,
      "inputs": [],
      "name": "TOKEN_DECIMALS",
      "outputs": [
        {
          "name": "",
          "type": "uint8"
        }
      ],
      "payable": false,
      "stateMutability": "view",
      "type": "function"
    },
    {
      "constant": true,
      "inputs": [],
      "name": "TOKEN_TOTALSUPPLY",
      "outputs": [
        {
          "name": "",
          "type": "uint256"
        }
      ],
      "payable": false,
      "stateMutability": "view",
      "type": "function"
    },
    {
      "constant": true,
      "inputs": [],
      "name": "DECIMALSFACTOR",
      "outputs": [
        {
          "name": "",
          "type": "uint256"
        }
      ],
      "payable": false,
      "stateMutability": "view",
      "type": "function"
    },
    {
      "constant": true,
      "inputs": [],
      "name": "PUBLIC_RESERVED",
      "outputs": [
        {
          "name": "",
          "type": "address"
        }
      ],
      "payable": false,
      "stateMutability": "view",
      "type": "function"
    },
    {
      "constant": true,
      "inputs": [
        {
          "name": "",
          "type": "uint256"
        }
      ],
      "name": "BOARD_RESERVED",
      "outputs": [
        {
          "name": "",
          "type": "address"
        }
      ],
      "payable": false,
      "stateMutability": "view",
      "type": "function"
    },
    {
      "constant": true,
      "inputs": [
        {
          "name": "",
          "type": "uint256"
        }
      ],
      "name": "BOARD_RESERVED_PERSENTAGE",
      "outputs": [
        {
          "name": "",
          "type": "uint256"
        }
      ],
      "payable": false,
      "stateMutability": "view",
      "type": "function"
    }
  ],
  "bytecode": "0x60606040526101406040519081016040528073a265686df1b9e58d7248d18be080b80a63ec223573ffffffffffffffffffffffffffffffffffffffff1673ffffffffffffffffffffffffffffffffffffffff168152602001734a6a43ae8ed7d73e37fee430ee96b5c0fa31dc2973ffffffffffffffffffffffffffffffffffffffff1673ffffffffffffffffffffffffffffffffffffffff16815260200173d5b7a6aba7883647809a21145ba3c5ede709ed0373ffffffffffffffffffffffffffffffffffffffff1673ffffffffffffffffffffffffffffffffffffffff168152602001734bf38ea21dcfdb0da13e512db0b99006b86d3b8b73ffffffffffffffffffffffffffffffffffffffff1673ffffffffffffffffffffffffffffffffffffffff16815260200173d39d8d0d8d9f586ead0771825a6897a287a81ab373ffffffffffffffffffffffffffffffffffffffff1673ffffffffffffffffffffffffffffffffffffffff16815260200173c369d344691bc695d10675efb3aff64ed50fcea773ffffffffffffffffffffffffffffffffffffffff1673ffffffffffffffffffffffffffffffffffffffff16815260200173b0cc1b28d5c265d64a0111c8101ca43aff923b5073ffffffffffffffffffffffffffffffffffffffff1673ffffffffffffffffffffffffffffffffffffffff16815260200173f4a8ce826f5706343ee35009aa760b402a397c9873ffffffffffffffffffffffffffffffffffffffff1673ffffffffffffffffffffffffffffffffffffffff168152602001733468add6b7f3569f725189d8c1161fef863d326f73ffffffffffffffffffffffffffffffffffffffff1673ffffffffffffffffffffffffffffffffffffffff168152602001733c0f85690b06139ba701cc002ab48490b2ad566573ffffffffffffffffffffffffffffffffffffffff1673ffffffffffffffffffffffffffffffffffffffff16815250600090600a6102db929190610380565b50610140604051908101604052806107d061ffff1681526020016107d061ffff1681526020016107d061ffff1681526020016103e861ffff1681526020016103e861ffff1681526020016101f461ffff1681526020016101f461ffff16815260200161019061ffff16815260200161012c61ffff16815260200161012c61ffff16815250600190600a61036f92919061040a565b50341561037b57600080fd5b6104c5565b8280548282559060005260206000209081019282156103f9579160200282015b828111156103f85782518260006101000a81548173ffffffffffffffffffffffffffffffffffffffff021916908373ffffffffffffffffffffffffffffffffffffffff160217905550916020019190600101906103a0565b5b509050610406919061045d565b5090565b82805482825590600052602060002090810192821561044c579160200282015b8281111561044b578251829061ffff1690559160200191906001019061042a565b5b50905061045991906104a0565b5090565b61049d91905b8082111561049957600081816101000a81549073ffffffffffffffffffffffffffffffffffffffff021916905550600101610463565b5090565b90565b6104c291905b808211156104be5760008160009055506001016104a6565b5090565b90565b610493806104d46000396000f300606060405260043610610099576000357c0100000000000000000000000000000000000000000000000000000000900463ffffffff168063188214001461009e5780631b6885651461012c5780632a905318146101555780635b7f415c146101e357806374c950fb146102125780638bc04eb71461023b5780638be4886c14610264578063b9674327146102b9578063bb1d660c1461031c575b600080fd5b34156100a957600080fd5b6100b1610353565b6040518080602001828103825283818151815260200191508051906020019080838360005b838110156100f15780820151818401526020810190506100d6565b50505050905090810190601f16801561011e5780820380516001836020036101000a031916815260200191505b509250505060405180910390f35b341561013757600080fd5b61013f61038c565b6040518082815260200191505060405180910390f35b341561016057600080fd5b610168610392565b6040518080602001828103825283818151815260200191508051906020019080838360005b838110156101a857808201518184015260208101905061018d565b50505050905090810190601f1680156101d55780820380516001836020036101000a031916815260200191505b509250505060405180910390f35b34156101ee57600080fd5b6101f66103cb565b604051808260ff1660ff16815260200191505060405180910390f35b341561021d57600080fd5b6102256103d0565b6040518082815260200191505060405180910390f35b341561024657600080fd5b61024e6103e1565b6040518082815260200191505060405180910390f35b341561026f57600080fd5b6102776103ec565b604051808273ffffffffffffffffffffffffffffffffffffffff1673ffffffffffffffffffffffffffffffffffffffff16815260200191505060405180910390f35b34156102c457600080fd5b6102da6004808035906020019091905050610404565b604051808273ffffffffffffffffffffffffffffffffffffffff1673ffffffffffffffffffffffffffffffffffffffff16815260200191505060405180910390f35b341561032757600080fd5b61033d6004808035906020019091905050610443565b6040518082815260200191505060405180910390f35b6040805190810160405280601081526020017f444f4d5553434f494e5320546f6b656e0000000000000000000000000000000081525081565b61232881565b6040805190810160405280600381526020017f444f43000000000000000000000000000000000000000000000000000000000081525081565b601281565b601260ff16600a0a633b9aca000281565b601260ff16600a0a81565b73b0327663fc10dd843d3d2c35b18a08dd6dc5f68e81565b60008181548110151561041357fe5b90600052602060002090016000915054906101000a900473ffffffffffffffffffffffffffffffffffffffff1681565b60018181548110151561045257fe5b906000526020600020900160009150905054815600a165627a7a723058208f11bdd3e7d9a7966591c29d5f32aff6850809103d48395ae7b5bb628fcad04d0029",
  "source": "pragma solidity ^0.4.19;\n\ncontract DOCTokenConfig {\n\n    string  public constant TOKEN_SYMBOL      = \"DOC\";\n    string  public constant TOKEN_NAME        = \"DOMUSCOINS Token\";\n    uint8   public constant TOKEN_DECIMALS    = 18;\n\n    uint256 public constant DECIMALSFACTOR    = 10**uint256(TOKEN_DECIMALS);\n    uint256 public constant TOKEN_TOTALSUPPLY = 1000000000 * DECIMALSFACTOR;\n\n    address public constant PUBLIC_RESERVED = 0xB0327663Fc10DD843D3D2C35b18a08DD6DC5F68e;\n    uint256 public constant PUBLIC_RESERVED_PERSENTAGE = 9000;\n\n    address[] public BOARD_RESERVED = [ 0xa265686DF1B9e58d7248D18Be080b80A63EC2235,\n    0x4a6a43Ae8ed7D73E37fEE430EE96b5c0fa31DC29,\n    0xd5B7A6abA7883647809A21145ba3c5EDE709ed03,\n    0x4BF38EA21dCFdB0DA13E512dB0B99006B86D3b8b,\n    0xD39D8D0d8D9F586eAD0771825a6897A287A81Ab3,\n    0xc369d344691BC695D10675efB3aFF64ed50fcEA7,\n    0xb0Cc1b28D5C265D64a0111C8101ca43AfF923B50,\n    0xF4a8ce826F5706343eE35009AA760B402a397c98,\n    0x3468aDd6b7f3569F725189d8c1161fef863D326f,\n    0x3C0f85690B06139ba701Cc002Ab48490B2ad5665];\n\n    uint256[] public BOARD_RESERVED_PERSENTAGE = [2000,2000,2000,1000,1000,500,500,400,300,300];\n\n}",
  "sourcePath": "/var/www/html/erToken/contracts/DOCTokenConfig.sol",
  "compiler": {
    "name": "solc",
    "version": "0.4.19+commit.c4cbbb05.Emscripten.clang"
  },
  "schemaVersion": "1.0.1",
  "updatedAt": "2018-02-17T17:10:13.154Z"
}