{
  "contractName": "FinalizableToken",
  "abi": [
    {
      "constant": true,
      "inputs": [],
      "name": "name",
      "outputs": [
        {
          "name": "",
          "type": "string"
        }
      ],
      "payable": false,
      "stateMutability": "view",
      "type": "function"
    },
    {
      "constant": false,
      "inputs": [
        {
          "name": "_spender",
          "type": "address"
        },
        {
          "name": "_value",
          "type": "uint256"
        }
      ],
      "name": "approve",
      "outputs": [
        {
          "name": "success",
          "type": "bool"
        }
      ],
      "payable": false,
      "stateMutability": "nonpayable",
      "type": "function"
    },
    {
      "constant": true,
      "inputs": [],
      "name": "totalSupply",
      "outputs": [
        {
          "name": "",
          "type": "uint256"
        }
      ],
      "payable": false,
      "stateMutability": "view",
      "type": "function"
    },
    {
      "constant": false,
      "inputs": [],
      "name": "cancelOwnershipTransfer",
      "outputs": [
        {
          "name": "",
          "type": "bool"
        }
      ],
      "payable": false,
      "stateMutability": "nonpayable",
      "type": "function"
    },
    {
      "constant": true,
      "inputs": [
        {
          "name": "_address",
          "type": "address"
        }
      ],
      "name": "isOwner",
      "outputs": [
        {
          "name": "",
          "type": "bool"
        }
      ],
      "payable": false,
      "stateMutability": "view",
      "type": "function"
    },
    {
      "constant": true,
      "inputs": [],
      "name": "decimals",
      "outputs": [
        {
          "name": "",
          "type": "uint8"
        }
      ],
      "payable": false,
      "stateMutability": "view",
      "type": "function"
    },
    {
      "constant": true,
      "inputs": [
        {
          "name": "_owner",
          "type": "address"
        }
      ],
      "name": "balanceOf",
      "outputs": [
        {
          "name": "balance",
          "type": "uint256"
        }
      ],
      "payable": false,
      "stateMutability": "view",
      "type": "function"
    },
    {
      "constant": true,
      "inputs": [],
      "name": "owner",
      "outputs": [
        {
          "name": "",
          "type": "address"
        }
      ],
      "payable": false,
      "stateMutability": "view",
      "type": "function"
    },
    {
      "constant": true,
      "inputs": [],
      "name": "symbol",
      "outputs": [
        {
          "name": "",
          "type": "string"
        }
      ],
      "payable": false,
      "stateMutability": "view",
      "type": "function"
    },
    {
      "constant": false,
      "inputs": [
        {
          "name": "_proposedOwner",
          "type": "address"
        }
      ],
      "name": "initiateOwnershipTransfer",
      "outputs": [
        {
          "name": "",
          "type": "bool"
        }
      ],
      "payable": false,
      "stateMutability": "nonpayable",
      "type": "function"
    },
    {
      "constant": true,
      "inputs": [],
      "name": "proposedOwner",
      "outputs": [
        {
          "name": "",
          "type": "address"
        }
      ],
      "payable": false,
      "stateMutability": "view",
      "type": "function"
    },
    {
      "constant": true,
      "inputs": [
        {
          "name": "_owner",
          "type": "address"
        },
        {
          "name": "_spender",
          "type": "address"
        }
      ],
      "name": "allowance",
      "outputs": [
        {
          "name": "remaining",
          "type": "uint256"
        }
      ],
      "payable": false,
      "stateMutability": "view",
      "type": "function"
    },
    {
      "constant": false,
      "inputs": [],
      "name": "completeOwnershipTransfer",
      "outputs": [
        {
          "name": "",
          "type": "bool"
        }
      ],
      "payable": false,
      "stateMutability": "nonpayable",
      "type": "function"
    },
    {
      "inputs": [
        {
          "name": "_name",
          "type": "string"
        },
        {
          "name": "_symbol",
          "type": "string"
        },
        {
          "name": "_decimals",
          "type": "uint8"
        },
        {
          "name": "_totalSupply",
          "type": "uint256"
        },
        {
          "name": "_publicReserved",
          "type": "address"
        },
        {
          "name": "_publicReservedPersentage",
          "type": "uint256"
        },
        {
          "name": "_boardReserved",
          "type": "address[]"
        },
        {
          "name": "_boardReservedPersentage",
          "type": "uint256[]"
        }
      ],
      "payable": false,
      "stateMutability": "nonpayable",
      "type": "constructor"
    },
    {
      "anonymous": false,
      "inputs": [
        {
          "indexed": false,
          "name": "burner",
          "type": "address"
        },
        {
          "indexed": false,
          "name": "value",
          "type": "uint256"
        }
      ],
      "name": "Burn",
      "type": "event"
    },
    {
      "anonymous": false,
      "inputs": [
        {
          "indexed": true,
          "name": "_proposedOwner",
          "type": "address"
        }
      ],
      "name": "OwnershipTransferInitiated",
      "type": "event"
    },
    {
      "anonymous": false,
      "inputs": [
        {
          "indexed": true,
          "name": "_newOwner",
          "type": "address"
        }
      ],
      "name": "OwnershipTransferCompleted",
      "type": "event"
    },
    {
      "anonymous": false,
      "inputs": [],
      "name": "OwnershipTransferCanceled",
      "type": "event"
    },
    {
      "anonymous": false,
      "inputs": [
        {
          "indexed": true,
          "name": "_from",
          "type": "address"
        },
        {
          "indexed": true,
          "name": "_to",
          "type": "address"
        },
        {
          "indexed": false,
          "name": "_value",
          "type": "uint256"
        }
      ],
      "name": "Transfer",
      "type": "event"
    },
    {
      "anonymous": false,
      "inputs": [
        {
          "indexed": true,
          "name": "_owner",
          "type": "address"
        },
        {
          "indexed": true,
          "name": "_spender",
          "type": "address"
        },
        {
          "indexed": false,
          "name": "_value",
          "type": "uint256"
        }
      ],
      "name": "Approval",
      "type": "event"
    },
    {
      "constant": false,
      "inputs": [
        {
          "name": "_to",
          "type": "address"
        },
        {
          "name": "_value",
          "type": "uint256"
        }
      ],
      "name": "transfer",
      "outputs": [
        {
          "name": "success",
          "type": "bool"
        }
      ],
      "payable": false,
      "stateMutability": "nonpayable",
      "type": "function"
    },
    {
      "constant": false,
      "inputs": [
        {
          "name": "_from",
          "type": "address"
        },
        {
          "name": "_to",
          "type": "address"
        },
        {
          "name": "_value",
          "type": "uint256"
        }
      ],
      "name": "transferFrom",
      "outputs": [
        {
          "name": "success",
          "type": "bool"
        }
      ],
      "payable": false,
      "stateMutability": "nonpayable",
      "type": "function"
    },
    {
      "constant": true,
      "inputs": [],
      "name": "currentTime",
      "outputs": [
        {
          "name": "",
          "type": "uint256"
        }
      ],
      "payable": false,
      "stateMutability": "view",
      "type": "function"
    },
    {
      "constant": false,
      "inputs": [
        {
          "name": "_saleToken",
          "type": "address"
        }
      ],
      "name": "setICOAddress",
      "outputs": [
        {
          "name": "",
          "type": "bool"
        }
      ],
      "payable": false,
      "stateMutability": "nonpayable",
      "type": "function"
    },
    {
      "constant": false,
      "inputs": [
        {
          "name": "_value",
          "type": "uint256"
        }
      ],
      "name": "burn",
      "outputs": [],
      "payable": false,
      "stateMutability": "nonpayable",
      "type": "function"
    }
  ],
  "bytecode": "0x606060405261271060055534156200001657600080fd5b604051620021f2380380620021f2833981016040528080518201919060200180518201919060200180519060200190919080519060200190919080519060200190919080519060200190919080518201919060200180518201919050506000888888888888888860008060008a600090805190602001906200009a929190620004f7565b508960019080519060200190620000b3929190620004f7565b5088600260006101000a81548160ff021916908360ff160217905550876003819055506200011d60055462000100888b620004906401000000000262001bb3179091906401000000009004565b620004c66401000000000262001be6179091906401000000009004565b600481905550600454600660008973ffffffffffffffffffffffffffffffffffffffff1673ffffffffffffffffffffffffffffffffffffffff168152602001908152602001600020819055506200018e60045489620004dd640100000000026200177e179091906401000000009004565b92508673ffffffffffffffffffffffffffffffffffffffff1660007fddf252ad1be2c89b69c2b068fc378daa952ba7f163c4a11628f55a4df523b3ef6004546040518082815260200191505060405180910390a3600091505b84518210156200032457620002506005546200023386858151811015156200020b57fe5b9060200190602002015186620004906401000000000262001bb3179091906401000000009004565b620004c66401000000000262001be6179091906401000000009004565b9050806006600087858151811015156200026657fe5b9060200190602002015173ffffffffffffffffffffffffffffffffffffffff1673ffffffffffffffffffffffffffffffffffffffff168152602001908152602001600020819055508482815181101515620002bd57fe5b9060200190602002015173ffffffffffffffffffffffffffffffffffffffff1660007fddf252ad1be2c89b69c2b068fc378daa952ba7f163c4a11628f55a4df523b3ef836040518082815260200191505060405180910390a38180600101925050620001e7565b505050505050505050505033600860006101000a81548173ffffffffffffffffffffffffffffffffffffffff021916908373ffffffffffffffffffffffffffffffffffffffff16021790555084600a60006101000a81548173ffffffffffffffffffffffffffffffffffffffff021916908373ffffffffffffffffffffffffffffffffffffffff160217905550600090505b82518110156200048157600660008483815181101515620003d357fe5b9060200190602002015173ffffffffffffffffffffffffffffffffffffffff1673ffffffffffffffffffffffffffffffffffffffff16815260200190815260200160002054600b600085848151811015156200042b57fe5b9060200190602002015173ffffffffffffffffffffffffffffffffffffffff1673ffffffffffffffffffffffffffffffffffffffff168152602001908152602001600020819055508080600101915050620003b6565b505050505050505050620005a6565b60008082840290506000841480620004b35750828482811515620004b057fe5b04145b1515620004bc57fe5b8091505092915050565b60008183811515620004d457fe5b04905092915050565b6000818310151515620004ec57fe5b818303905092915050565b828054600181600116156101000203166002900490600052602060002090601f016020900481019282601f106200053a57805160ff19168380011785556200056b565b828001600101855582156200056b579182015b828111156200056a5782518255916020019190600101906200054d565b5b5090506200057a91906200057e565b5090565b620005a391905b808211156200059f57600081600090555060010162000585565b5090565b90565b611c3c80620005b66000396000f3006060604052600436106100fc576000357c0100000000000000000000000000000000000000000000000000000000900463ffffffff16806306fdde0314610101578063095ea7b31461018f57806318160ddd146101e957806323452b9c1461021257806323b872dd1461023f5780632f54bf6e146102b8578063313ce5671461030957806342966c681461033857806370a082311461035b5780638348bfb9146103a85780638da5cb5b146103f957806395d89b411461044e578063a9059cbb146104dc578063c0b6f56114610536578063d153b60c14610587578063d18e81b3146105dc578063dd62ed3e14610605578063e71a781114610671575b600080fd5b341561010c57600080fd5b61011461069e565b6040518080602001828103825283818151815260200191508051906020019080838360005b83811015610154578082015181840152602081019050610139565b50505050905090810190601f1680156101815780820380516001836020036101000a031916815260200191505b509250505060405180910390f35b341561019a57600080fd5b6101cf600480803573ffffffffffffffffffffffffffffffffffffffff16906020019091908035906020019091905050610746565b604051808215151515815260200191505060405180910390f35b34156101f457600080fd5b6101fc610838565b6040518082815260200191505060405180910390f35b341561021d57600080fd5b610225610842565b604051808215151515815260200191505060405180910390f35b341561024a57600080fd5b61029e600480803573ffffffffffffffffffffffffffffffffffffffff1690602001909190803573ffffffffffffffffffffffffffffffffffffffff16906020019091908035906020019091905050610935565b604051808215151515815260200191505060405180910390f35b34156102c357600080fd5b6102ef600480803573ffffffffffffffffffffffffffffffffffffffff16906020019091905050610a62565b604051808215151515815260200191505060405180910390f35b341561031457600080fd5b61031c610abc565b604051808260ff1660ff16815260200191505060405180910390f35b341561034357600080fd5b6103596004808035906020019091905050610ad3565b005b341561036657600080fd5b610392600480803573ffffffffffffffffffffffffffffffffffffffff16906020019091905050610c53565b6040518082815260200191505060405180910390f35b34156103b357600080fd5b6103df600480803573ffffffffffffffffffffffffffffffffffffffff16906020019091905050610c9c565b604051808215151515815260200191505060405180910390f35b341561040457600080fd5b61040c610d7a565b604051808273ffffffffffffffffffffffffffffffffffffffff1673ffffffffffffffffffffffffffffffffffffffff16815260200191505060405180910390f35b341561045957600080fd5b610461610da0565b6040518080602001828103825283818151815260200191508051906020019080838360005b838110156104a1578082015181840152602081019050610486565b50505050905090810190601f1680156104ce5780820380516001836020036101000a031916815260200191505b509250505060405180910390f35b34156104e757600080fd5b61051c600480803573ffffffffffffffffffffffffffffffffffffffff16906020019091908035906020019091905050610e48565b604051808215151515815260200191505060405180910390f35b341561054157600080fd5b61056d600480803573ffffffffffffffffffffffffffffffffffffffff16906020019091905050610f73565b604051808215151515815260200191505060405180910390f35b341561059257600080fd5b61059a611113565b604051808273ffffffffffffffffffffffffffffffffffffffff1673ffffffffffffffffffffffffffffffffffffffff16815260200191505060405180910390f35b34156105e757600080fd5b6105ef611139565b6040518082815260200191505060405180910390f35b341561061057600080fd5b61065b600480803573ffffffffffffffffffffffffffffffffffffffff1690602001909190803573ffffffffffffffffffffffffffffffffffffffff16906020019091905050611141565b6040518082815260200191505060405180910390f35b341561067c57600080fd5b6106846111c8565b604051808215151515815260200191505060405180910390f35b6106a6611bfc565b60008054600181600116156101000203166002900480601f01602080910402602001604051908101604052809291908181526020018280546001816001161561010002031660029004801561073c5780601f106107115761010080835404028352916020019161073c565b820191906000526020600020905b81548152906001019060200180831161071f57829003601f168201915b5050505050905090565b600081600760003373ffffffffffffffffffffffffffffffffffffffff1673ffffffffffffffffffffffffffffffffffffffff16815260200190815260200160002060008573ffffffffffffffffffffffffffffffffffffffff1673ffffffffffffffffffffffffffffffffffffffff168152602001908152602001600020819055508273ffffffffffffffffffffffffffffffffffffffff163373ffffffffffffffffffffffffffffffffffffffff167f8c5be1e5ebec7d5bd14f71427d1e84f3dd0314c0f7b2291e5b200ac8c7c3b925846040518082815260200191505060405180910390a36001905092915050565b6000600354905090565b60006001151561085133610a62565b151514151561085f57600080fd5b600073ffffffffffffffffffffffffffffffffffffffff16600960009054906101000a900473ffffffffffffffffffffffffffffffffffffffff1673ffffffffffffffffffffffffffffffffffffffff1614156108bf5760019050610932565b6000600960006101000a81548173ffffffffffffffffffffffffffffffffffffffff021916908373ffffffffffffffffffffffffffffffffffffffff1602179055507f670699162ea7ba4de638b5a57c2148aed9ee8bd69740a5e6a7db727e3886c88b60405160405180910390a1600190505b90565b6000610942338484611315565b8273ffffffffffffffffffffffffffffffffffffffff16600c60009054906101000a900473ffffffffffffffffffffffffffffffffffffffff1673ffffffffffffffffffffffffffffffffffffffff161415610a4e57600c60009054906101000a900473ffffffffffffffffffffffffffffffffffffffff1673ffffffffffffffffffffffffffffffffffffffff166379e1250d836000604051602001526040518263ffffffff167c010000000000000000000000000000000000000000000000000000000002815260040180828152602001915050602060405180830381600087803b1515610a3157600080fd5b6102c65a03f11515610a4257600080fd5b50505060405180519050505b610a598484846114d3565b90509392505050565b6000600860009054906101000a900473ffffffffffffffffffffffffffffffffffffffff1673ffffffffffffffffffffffffffffffffffffffff168273ffffffffffffffffffffffffffffffffffffffff16149050919050565b6000600260009054906101000a900460ff16905090565b60008082111515610ae357600080fd5b600660003373ffffffffffffffffffffffffffffffffffffffff1673ffffffffffffffffffffffffffffffffffffffff168152602001908152602001600020548211151515610b3157600080fd5b339050610b8682600660008473ffffffffffffffffffffffffffffffffffffffff1673ffffffffffffffffffffffffffffffffffffffff1681526020019081526020016000205461177e90919063ffffffff16565b600660008373ffffffffffffffffffffffffffffffffffffffff1673ffffffffffffffffffffffffffffffffffffffff16815260200190815260200160002081905550610bde8260035461177e90919063ffffffff16565b6003819055507fcc16f5dbb4873280815c1ee09dbd06736cffcc184412cf7a71a0fdb75d397ca58183604051808373ffffffffffffffffffffffffffffffffffffffff1673ffffffffffffffffffffffffffffffffffffffff1681526020018281526020019250505060405180910390a15050565b6000600660008373ffffffffffffffffffffffffffffffffffffffff1673ffffffffffffffffffffffffffffffffffffffff168152602001908152602001600020549050919050565b600060011515610cab33610a62565b1515141515610cb957600080fd5b600073ffffffffffffffffffffffffffffffffffffffff168273ffffffffffffffffffffffffffffffffffffffff1614151515610cf557600080fd5b3073ffffffffffffffffffffffffffffffffffffffff168273ffffffffffffffffffffffffffffffffffffffff1614151515610d3057600080fd5b81600c60006101000a81548173ffffffffffffffffffffffffffffffffffffffff021916908373ffffffffffffffffffffffffffffffffffffffff16021790555060019050919050565b600860009054906101000a900473ffffffffffffffffffffffffffffffffffffffff1681565b610da8611bfc565b60018054600181600116156101000203166002900480601f016020809104026020016040519081016040528092919081815260200182805460018160011615610100020316600290048015610e3e5780601f10610e1357610100808354040283529160200191610e3e565b820191906000526020600020905b815481529060010190602001808311610e2157829003601f168201915b5050505050905090565b6000610e55338484611315565b8273ffffffffffffffffffffffffffffffffffffffff16600c60009054906101000a900473ffffffffffffffffffffffffffffffffffffffff1673ffffffffffffffffffffffffffffffffffffffff161415610f6157600c60009054906101000a900473ffffffffffffffffffffffffffffffffffffffff1673ffffffffffffffffffffffffffffffffffffffff166379e1250d836000604051602001526040518263ffffffff167c010000000000000000000000000000000000000000000000000000000002815260040180828152602001915050602060405180830381600087803b1515610f4457600080fd5b6102c65a03f11515610f5557600080fd5b50505060405180519050505b610f6b8383611797565b905092915050565b600060011515610f8233610a62565b1515141515610f9057600080fd5b600073ffffffffffffffffffffffffffffffffffffffff168273ffffffffffffffffffffffffffffffffffffffff1614151515610fcc57600080fd5b3073ffffffffffffffffffffffffffffffffffffffff168273ffffffffffffffffffffffffffffffffffffffff161415151561100757600080fd5b600860009054906101000a900473ffffffffffffffffffffffffffffffffffffffff1673ffffffffffffffffffffffffffffffffffffffff168273ffffffffffffffffffffffffffffffffffffffff161415151561106457600080fd5b81600960006101000a81548173ffffffffffffffffffffffffffffffffffffffff021916908373ffffffffffffffffffffffffffffffffffffffff160217905550600960009054906101000a900473ffffffffffffffffffffffffffffffffffffffff1673ffffffffffffffffffffffffffffffffffffffff167f20f5afdf40bf7b43c89031a5d4369a30b159e512d164aa46124bcb706b4a1caf60405160405180910390a260019050919050565b600960009054906101000a900473ffffffffffffffffffffffffffffffffffffffff1681565b600042905090565b6000600760008473ffffffffffffffffffffffffffffffffffffffff1673ffffffffffffffffffffffffffffffffffffffff16815260200190815260200160002060008373ffffffffffffffffffffffffffffffffffffffff1673ffffffffffffffffffffffffffffffffffffffff16815260200190815260200160002054905092915050565b6000600960009054906101000a900473ffffffffffffffffffffffffffffffffffffffff1673ffffffffffffffffffffffffffffffffffffffff163373ffffffffffffffffffffffffffffffffffffffff1614151561122657600080fd5b33600860006101000a81548173ffffffffffffffffffffffffffffffffffffffff021916908373ffffffffffffffffffffffffffffffffffffffff1602179055506000600960006101000a81548173ffffffffffffffffffffffffffffffffffffffff021916908373ffffffffffffffffffffffffffffffffffffffff160217905550600860009054906101000a900473ffffffffffffffffffffffffffffffffffffffff1673ffffffffffffffffffffffffffffffffffffffff167f624adc4c72536289dd9d5439ccdeccd8923cb9af95fb626b21935447c77b840760405160405180910390a26001905090565b60008073ffffffffffffffffffffffffffffffffffffffff168373ffffffffffffffffffffffffffffffffffffffff161415151561135257600080fd5b600073ffffffffffffffffffffffffffffffffffffffff16600c60009054906101000a900473ffffffffffffffffffffffffffffffffffffffff1673ffffffffffffffffffffffffffffffffffffffff16141515156113b057600080fd5b8373ffffffffffffffffffffffffffffffffffffffff16600c60009054906101000a900473ffffffffffffffffffffffffffffffffffffffff1673ffffffffffffffffffffffffffffffffffffffff16148061145a57508273ffffffffffffffffffffffffffffffffffffffff16600a60009054906101000a900473ffffffffffffffffffffffffffffffffffffffff1673ffffffffffffffffffffffffffffffffffffffff1614155b151561146557600080fd5b600b60008573ffffffffffffffffffffffffffffffffffffffff1673ffffffffffffffffffffffffffffffffffffffff16815260200190815260200160002054905060008114156114b5576114cd565b816114bf82611932565b101515156114cc57600080fd5b5b50505050565b600061152782600660008773ffffffffffffffffffffffffffffffffffffffff1673ffffffffffffffffffffffffffffffffffffffff1681526020019081526020016000205461177e90919063ffffffff16565b600660008673ffffffffffffffffffffffffffffffffffffffff1673ffffffffffffffffffffffffffffffffffffffff168152602001908152602001600020819055506115f982600760008773ffffffffffffffffffffffffffffffffffffffff1673ffffffffffffffffffffffffffffffffffffffff16815260200190815260200160002060003373ffffffffffffffffffffffffffffffffffffffff1673ffffffffffffffffffffffffffffffffffffffff1681526020019081526020016000205461177e90919063ffffffff16565b600760008673ffffffffffffffffffffffffffffffffffffffff1673ffffffffffffffffffffffffffffffffffffffff16815260200190815260200160002060003373ffffffffffffffffffffffffffffffffffffffff1673ffffffffffffffffffffffffffffffffffffffff168152602001908152602001600020819055506116cb82600660008673ffffffffffffffffffffffffffffffffffffffff1673ffffffffffffffffffffffffffffffffffffffff16815260200190815260200160002054611b9590919063ffffffff16565b600660008573ffffffffffffffffffffffffffffffffffffffff1673ffffffffffffffffffffffffffffffffffffffff168152602001908152602001600020819055508273ffffffffffffffffffffffffffffffffffffffff168473ffffffffffffffffffffffffffffffffffffffff167fddf252ad1be2c89b69c2b068fc378daa952ba7f163c4a11628f55a4df523b3ef846040518082815260200191505060405180910390a3600190509392505050565b600081831015151561178c57fe5b818303905092915050565b60006117eb82600660003373ffffffffffffffffffffffffffffffffffffffff1673ffffffffffffffffffffffffffffffffffffffff1681526020019081526020016000205461177e90919063ffffffff16565b600660003373ffffffffffffffffffffffffffffffffffffffff1673ffffffffffffffffffffffffffffffffffffffff1681526020019081526020016000208190555061188082600660008673ffffffffffffffffffffffffffffffffffffffff1673ffffffffffffffffffffffffffffffffffffffff16815260200190815260200160002054611b9590919063ffffffff16565b600660008573ffffffffffffffffffffffffffffffffffffffff1673ffffffffffffffffffffffffffffffffffffffff168152602001908152602001600020819055508273ffffffffffffffffffffffffffffffffffffffff163373ffffffffffffffffffffffffffffffffffffffff167fddf252ad1be2c89b69c2b068fc378daa952ba7f163c4a11628f55a4df523b3ef846040518082815260200191505060405180910390a36001905092915050565b600080600080600080600060066000600a60009054906101000a900473ffffffffffffffffffffffffffffffffffffffff1673ffffffffffffffffffffffffffffffffffffffff1673ffffffffffffffffffffffffffffffffffffffff168152602001908152602001600020549550600c60009054906101000a900473ffffffffffffffffffffffffffffffffffffffff1673ffffffffffffffffffffffffffffffffffffffff1663e53626676000604051602001526040518163ffffffff167c0100000000000000000000000000000000000000000000000000000000028152600401602060405180830381600087803b1515611a2f57600080fd5b6102c65a03f11515611a4057600080fd5b505050604051805190509450600c60009054906101000a900473ffffffffffffffffffffffffffffffffffffffff1673ffffffffffffffffffffffffffffffffffffffff16637335367a6000604051602001526040518163ffffffff167c0100000000000000000000000000000000000000000000000000000000028152600401602060405180830381600087803b1515611ada57600080fd5b6102c65a03f11515611aeb57600080fd5b505050604051805190509350611b1c84611b0e8789611b9590919063ffffffff16565b61177e90919063ffffffff16565b9550611b47600454611b3961271089611bb390919063ffffffff16565b611be690919063ffffffff16565b9250611b70600554611b62858b611bb390919063ffffffff16565b611be690919063ffffffff16565b9150611b85828961177e90919063ffffffff16565b9050809650505050505050919050565b6000808284019050838110151515611ba957fe5b8091505092915050565b60008082840290506000841480611bd45750828482811515611bd157fe5b04145b1515611bdc57fe5b8091505092915050565b60008183811515611bf357fe5b04905092915050565b6020604051908101604052806000815250905600a165627a7a72305820a0ef49a4ff98df02733d4ce31ea32516478379c1351bc086bb08dcee20b677e70029",
  "source": "pragma solidity ^0.4.19;\n\nimport \"./ERC20Token.sol\";\nimport \"./Owned.sol\";\nimport \"./Math.sol\";\nimport \"./FlexibleTokenSale.sol\";\n\ncontract FinalizableToken is ERC20Token, Owned {\n\n    using Math for uint256;\n\n    //Public Reserved token address\n    address publicReservedAddress;\n\n    //board members persentages list\n    mapping(address=>uint) boardReservedAccount;\n\n    //ICO contract addresss\n    FlexibleTokenSale saleToken;\n\n    event Burn(address burner,uint256 value);\n\n    // The constructor will assign the initial token supply to the owner (msg.sender).\n    function FinalizableToken(string _name, string _symbol, uint8 _decimals, uint256 _totalSupply,address _publicReserved,uint256 _publicReservedPersentage,address[] _boardReserved,uint256[] _boardReservedPersentage) public\n    ERC20Token(_name, _symbol, _decimals, _totalSupply, _publicReserved, _publicReservedPersentage, _boardReserved, _boardReservedPersentage)\n    Owned(){\n        publicReservedAddress = _publicReserved;\n        for(uint i=0; i<_boardReserved.length; i++){\n            boardReservedAccount[_boardReserved[i]] = balances[_boardReserved[i]];\n        }\n    }\n\n\n    function transfer(address _to, uint256 _value) public returns (bool success) {\n        validateTransfer(msg.sender, _to,_value);\n        //assign total sale token count\n        if(address(saleToken) == _to) {\n            saleToken.setTotalToken(_value);\n        }\n        return super.transfer(_to, _value);\n    }\n\n\n    function transferFrom(address _from, address _to, uint256 _value) public returns (bool success) {\n        validateTransfer(msg.sender, _to, _value);\n        //assign total sale token count\n        if(address(saleToken) == _to) {\n            saleToken.setTotalToken(_value);\n        }\n        return super.transferFrom(_from, _to, _value);\n    }\n\n\n    function validateTransfer(address _sender, address _to, uint256 _value) private view {\n        //check null address\n        require(_to != address(0));\n\n        //check saleToken address\n        require(address(saleToken) != address(0));\n\n        //Only ICO address can send tokens to publicReservedAddress other then not allowed\n        require(address(saleToken) == _sender || publicReservedAddress != _to);\n\n        //check board member address\n        uint256 allowed = boardReservedAccount[_sender];\n        if (allowed == 0) {\n            //if not then return and allow for transfer\n            return;\n        }\n\n        // if yes then check allowed token for board member\n        require(getBoardMemberAllowedToken(allowed)>=_value);\n\n\n    }\n\n    function getBoardMemberAllowedToken(uint allowed) internal constant returns (uint256) {\n\n        //check public reserved address tokens\n        uint256 publicReservedRemaining = balances[publicReservedAddress];\n\n        //total token allocated in ICO address\n        uint256 icoToken = saleToken.getTotalTokenCount();\n\n        //total sold token\n        uint256 publicSoldToken = saleToken.getSoldTokenCount();\n\n        //get remainToken count of public reserved address\n        publicReservedRemaining = publicReservedRemaining.add(icoToken).sub(publicSoldToken);\n\n        //count persentage for remainTokens\n        uint256 publicReservedSoldPersentage = publicReservedRemaining.mul(10000).div(publicReservedToken);\n\n        //and allowed that persentage tokens to board member\n        uint256 remainToken = allowed.mul(publicReservedSoldPersentage).div(tokenConversionFactor);\n        uint256 allowedToken = allowed.sub(remainToken);\n\n        //return allowedToken\n        return allowedToken;\n    }\n\n    //get current time\n    function currentTime() public constant returns (uint256) {\n        return now;\n    }\n\n    //set ICO address\n    function setICOAddress(FlexibleTokenSale _saleToken) public onlyOwner returns (bool) {\n        require(address(_saleToken) != address(0));\n        require(address(_saleToken) != address(this));\n        saleToken = _saleToken;\n        return true;\n    }\n\n    /**\n     * @dev Burns a specific amount of tokens.\n     * @param _value The amount of token to be burned.\n     */\n    function burn(uint256 _value) public {\n        require(_value > 0);\n        require(_value <= balances[msg.sender]);\n        // no need to require value <= totalSupply, since that would imply the\n        // sender's balance is greater than the totalSupply, which *should* be an assertion failure\n\n        address burner = msg.sender;\n        balances[burner] = balances[burner].sub(_value);\n        tokenTotalSupply = tokenTotalSupply.sub(_value);\n        Burn(burner, _value);\n    }\n\n}",
  "sourcePath": "/var/www/html/erToken/contracts/internal/FinalizableToken.sol",
  "compiler": {
    "name": "solc",
    "version": "0.4.19+commit.c4cbbb05.Emscripten.clang"
  },
  "schemaVersion": "1.0.1",
  "updatedAt": "2018-02-17T17:10:13.193Z"
}