{
  "contractName": "FlexibleTokenSale",
  "abi": [
    {
      "constant": false,
      "inputs": [],
      "name": "cancelOwnershipTransfer",
      "outputs": [
        {
          "name": "",
          "type": "bool"
        }
      ],
      "payable": false,
      "stateMutability": "nonpayable",
      "type": "function"
    },
    {
      "constant": true,
      "inputs": [
        {
          "name": "_address",
          "type": "address"
        }
      ],
      "name": "isOwner",
      "outputs": [
        {
          "name": "",
          "type": "bool"
        }
      ],
      "payable": false,
      "stateMutability": "view",
      "type": "function"
    },
    {
      "constant": true,
      "inputs": [],
      "name": "tokenPerEther",
      "outputs": [
        {
          "name": "",
          "type": "uint256"
        }
      ],
      "payable": false,
      "stateMutability": "view",
      "type": "function"
    },
    {
      "constant": true,
      "inputs": [],
      "name": "tokenConversionFactor",
      "outputs": [
        {
          "name": "",
          "type": "uint256"
        }
      ],
      "payable": false,
      "stateMutability": "view",
      "type": "function"
    },
    {
      "constant": true,
      "inputs": [],
      "name": "totalToken",
      "outputs": [
        {
          "name": "",
          "type": "uint256"
        }
      ],
      "payable": false,
      "stateMutability": "view",
      "type": "function"
    },
    {
      "constant": true,
      "inputs": [],
      "name": "totalTokensSold",
      "outputs": [
        {
          "name": "",
          "type": "uint256"
        }
      ],
      "payable": false,
      "stateMutability": "view",
      "type": "function"
    },
    {
      "constant": true,
      "inputs": [],
      "name": "updatePrice",
      "outputs": [
        {
          "name": "",
          "type": "bool"
        }
      ],
      "payable": false,
      "stateMutability": "view",
      "type": "function"
    },
    {
      "constant": true,
      "inputs": [],
      "name": "walletAddress",
      "outputs": [
        {
          "name": "",
          "type": "address"
        }
      ],
      "payable": false,
      "stateMutability": "view",
      "type": "function"
    },
    {
      "constant": true,
      "inputs": [],
      "name": "suspended",
      "outputs": [
        {
          "name": "",
          "type": "bool"
        }
      ],
      "payable": false,
      "stateMutability": "view",
      "type": "function"
    },
    {
      "constant": true,
      "inputs": [],
      "name": "tokenPrice",
      "outputs": [
        {
          "name": "",
          "type": "uint256"
        }
      ],
      "payable": false,
      "stateMutability": "view",
      "type": "function"
    },
    {
      "constant": true,
      "inputs": [],
      "name": "owner",
      "outputs": [
        {
          "name": "",
          "type": "address"
        }
      ],
      "payable": false,
      "stateMutability": "view",
      "type": "function"
    },
    {
      "constant": true,
      "inputs": [],
      "name": "contributionMin",
      "outputs": [
        {
          "name": "",
          "type": "uint256"
        }
      ],
      "payable": false,
      "stateMutability": "view",
      "type": "function"
    },
    {
      "constant": false,
      "inputs": [
        {
          "name": "_proposedOwner",
          "type": "address"
        }
      ],
      "name": "initiateOwnershipTransfer",
      "outputs": [
        {
          "name": "",
          "type": "bool"
        }
      ],
      "payable": false,
      "stateMutability": "nonpayable",
      "type": "function"
    },
    {
      "constant": true,
      "inputs": [],
      "name": "totalEtherCollected",
      "outputs": [
        {
          "name": "",
          "type": "uint256"
        }
      ],
      "payable": false,
      "stateMutability": "view",
      "type": "function"
    },
    {
      "constant": true,
      "inputs": [],
      "name": "proposedOwner",
      "outputs": [
        {
          "name": "",
          "type": "address"
        }
      ],
      "payable": false,
      "stateMutability": "view",
      "type": "function"
    },
    {
      "constant": false,
      "inputs": [],
      "name": "completeOwnershipTransfer",
      "outputs": [
        {
          "name": "",
          "type": "bool"
        }
      ],
      "payable": false,
      "stateMutability": "nonpayable",
      "type": "function"
    },
    {
      "constant": true,
      "inputs": [],
      "name": "token",
      "outputs": [
        {
          "name": "",
          "type": "address"
        }
      ],
      "payable": false,
      "stateMutability": "view",
      "type": "function"
    },
    {
      "inputs": [
        {
          "name": "_walletAddress",
          "type": "address"
        },
        {
          "name": "_tokenPerEther",
          "type": "uint256"
        }
      ],
      "payable": false,
      "stateMutability": "nonpayable",
      "type": "constructor"
    },
    {
      "payable": true,
      "stateMutability": "payable",
      "type": "fallback"
    },
    {
      "anonymous": false,
      "inputs": [],
      "name": "Initialized",
      "type": "event"
    },
    {
      "anonymous": false,
      "inputs": [
        {
          "indexed": false,
          "name": "_newValue",
          "type": "uint256"
        }
      ],
      "name": "TokenPriceUpdated",
      "type": "event"
    },
    {
      "anonymous": false,
      "inputs": [
        {
          "indexed": false,
          "name": "ID",
          "type": "bytes32"
        },
        {
          "indexed": false,
          "name": "_newValue",
          "type": "uint256"
        }
      ],
      "name": "TokenPerEtherUpdated",
      "type": "event"
    },
    {
      "anonymous": false,
      "inputs": [
        {
          "indexed": false,
          "name": "_newValue",
          "type": "uint256"
        }
      ],
      "name": "TokenMinUpdated",
      "type": "event"
    },
    {
      "anonymous": false,
      "inputs": [
        {
          "indexed": false,
          "name": "_newValue",
          "type": "uint256"
        }
      ],
      "name": "TotalTokenUpdated",
      "type": "event"
    },
    {
      "anonymous": false,
      "inputs": [
        {
          "indexed": false,
          "name": "_newAddress",
          "type": "address"
        }
      ],
      "name": "WalletAddressUpdated",
      "type": "event"
    },
    {
      "anonymous": false,
      "inputs": [],
      "name": "SaleSuspended",
      "type": "event"
    },
    {
      "anonymous": false,
      "inputs": [],
      "name": "SaleResumed",
      "type": "event"
    },
    {
      "anonymous": false,
      "inputs": [
        {
          "indexed": false,
          "name": "_beneficiary",
          "type": "address"
        },
        {
          "indexed": false,
          "name": "_cost",
          "type": "uint256"
        },
        {
          "indexed": false,
          "name": "_tokens",
          "type": "uint256"
        }
      ],
      "name": "TokensPurchased",
      "type": "event"
    },
    {
      "anonymous": false,
      "inputs": [
        {
          "indexed": false,
          "name": "_amount",
          "type": "uint256"
        }
      ],
      "name": "TokensReclaimed",
      "type": "event"
    },
    {
      "anonymous": false,
      "inputs": [
        {
          "indexed": true,
          "name": "_proposedOwner",
          "type": "address"
        }
      ],
      "name": "OwnershipTransferInitiated",
      "type": "event"
    },
    {
      "anonymous": false,
      "inputs": [
        {
          "indexed": true,
          "name": "_newOwner",
          "type": "address"
        }
      ],
      "name": "OwnershipTransferCompleted",
      "type": "event"
    },
    {
      "anonymous": false,
      "inputs": [],
      "name": "OwnershipTransferCanceled",
      "type": "event"
    },
    {
      "constant": false,
      "inputs": [
        {
          "name": "_token",
          "type": "address"
        }
      ],
      "name": "initialize",
      "outputs": [
        {
          "name": "",
          "type": "bool"
        }
      ],
      "payable": false,
      "stateMutability": "nonpayable",
      "type": "function"
    },
    {
      "constant": false,
      "inputs": [
        {
          "name": "_walletAddress",
          "type": "address"
        }
      ],
      "name": "setWalletAddress",
      "outputs": [
        {
          "name": "",
          "type": "bool"
        }
      ],
      "payable": false,
      "stateMutability": "nonpayable",
      "type": "function"
    },
    {
      "constant": false,
      "inputs": [
        {
          "name": "_tokenPrice",
          "type": "uint256"
        }
      ],
      "name": "setTokenPrice",
      "outputs": [
        {
          "name": "",
          "type": "bool"
        }
      ],
      "payable": false,
      "stateMutability": "nonpayable",
      "type": "function"
    },
    {
      "constant": false,
      "inputs": [
        {
          "name": "_minToken",
          "type": "uint256"
        }
      ],
      "name": "setMinToken",
      "outputs": [
        {
          "name": "",
          "type": "bool"
        }
      ],
      "payable": false,
      "stateMutability": "nonpayable",
      "type": "function"
    },
    {
      "constant": false,
      "inputs": [
        {
          "name": "_token",
          "type": "uint256"
        }
      ],
      "name": "setTotalToken",
      "outputs": [
        {
          "name": "",
          "type": "bool"
        }
      ],
      "payable": false,
      "stateMutability": "nonpayable",
      "type": "function"
    },
    {
      "constant": true,
      "inputs": [],
      "name": "getSoldTokenCount",
      "outputs": [
        {
          "name": "",
          "type": "uint256"
        }
      ],
      "payable": false,
      "stateMutability": "view",
      "type": "function"
    },
    {
      "constant": true,
      "inputs": [],
      "name": "getTotalTokenCount",
      "outputs": [
        {
          "name": "",
          "type": "uint256"
        }
      ],
      "payable": false,
      "stateMutability": "view",
      "type": "function"
    },
    {
      "constant": false,
      "inputs": [],
      "name": "suspend",
      "outputs": [
        {
          "name": "",
          "type": "bool"
        }
      ],
      "payable": false,
      "stateMutability": "nonpayable",
      "type": "function"
    },
    {
      "constant": false,
      "inputs": [],
      "name": "resume",
      "outputs": [
        {
          "name": "",
          "type": "bool"
        }
      ],
      "payable": false,
      "stateMutability": "nonpayable",
      "type": "function"
    },
    {
      "constant": false,
      "inputs": [
        {
          "name": "_beneficiary",
          "type": "address"
        }
      ],
      "name": "buyTokens",
      "outputs": [
        {
          "name": "",
          "type": "uint256"
        }
      ],
      "payable": true,
      "stateMutability": "payable",
      "type": "function"
    },
    {
      "constant": false,
      "inputs": [
        {
          "name": "_value",
          "type": "bool"
        }
      ],
      "name": "startStopUpdateTokenPerEther",
      "outputs": [
        {
          "name": "",
          "type": "bool"
        }
      ],
      "payable": false,
      "stateMutability": "nonpayable",
      "type": "function"
    },
    {
      "constant": false,
      "inputs": [],
      "name": "updateTokenPerEther",
      "outputs": [],
      "payable": true,
      "stateMutability": "payable",
      "type": "function"
    },
    {
      "constant": false,
      "inputs": [
        {
          "name": "myid",
          "type": "bytes32"
        },
        {
          "name": "result",
          "type": "string"
        }
      ],
      "name": "__callback",
      "outputs": [],
      "payable": false,
      "stateMutability": "nonpayable",
      "type": "function"
    },
    {
      "constant": false,
      "inputs": [
        {
          "name": "myid",
          "type": "bytes32"
        },
        {
          "name": "result",
          "type": "string"
        },
        {
          "name": "proof",
          "type": "bytes"
        }
      ],
      "name": "__callback",
      "outputs": [],
      "payable": false,
      "stateMutability": "nonpayable",
      "type": "function"
    },
    {
      "constant": false,
      "inputs": [],
      "name": "reclaimTokens",
      "outputs": [
        {
          "name": "",
          "type": "bool"
        }
      ],
      "payable": false,
      "stateMutability": "nonpayable",
      "type": "function"
    }
  ],
  "bytecode": "0x60606040526001601160006101000a81548160ff021916908315150217905550341561002a57600080fd5b60405160408061314c83398101604052808051906020019091908051906020019091905050336000806101000a81548173ffffffffffffffffffffffffffffffffffffffff021916908373ffffffffffffffffffffffffffffffffffffffff160217905550600073ffffffffffffffffffffffffffffffffffffffff168273ffffffffffffffffffffffffffffffffffffffff16141515156100cb57600080fd5b3073ffffffffffffffffffffffffffffffffffffffff168273ffffffffffffffffffffffffffffffffffffffff161415151561010657600080fd5b81600c60006101000a81548173ffffffffffffffffffffffffffffffffffffffff021916908373ffffffffffffffffffffffffffffffffffffffff1602179055506000600760006101000a81548160ff021916908315150217905550606460088190555080600981905550674563918244f40000600a819055506000600f8190555060006010819055505050612fab806101a16000396000f300606060405260043610610196576000357c0100000000000000000000000000000000000000000000000000000000900463ffffffff168063046f7da2146101a257806323452b9c146101cf57806327dc297e146101fc5780632f54bf6e146102665780632f77dba4146102b757806338bbfa50146102e05780633c54caa51461038d57806353105fbc146103ba5780635558e1c3146103e3578063626be5671461041e57806363b2011714610447578063673a7e28146104705780636a61e5fc1461049d5780636ad5b3ea146104d8578063702efdf31461052d5780637335367a1461055a57806379e1250d146105835780637ff9b596146105be5780638da5cb5b146105e75780639128e2a81461063c578063ac1a386a14610679578063bcc13d1d146106ca578063c0b6f561146106f3578063c4d66de814610744578063c7a0206114610795578063c8396ba0146107be578063d153b60c146107c8578063e53626671461081d578063e6400bbe14610846578063e71a781114610873578063ec8ac4d8146108a0578063fc0c546a146108e2575b61019f33610937565b50005b34156101ad57600080fd5b6101b5610b89565b604051808215151515815260200191505060405180910390f35b34156101da57600080fd5b6101e2610c1a565b604051808215151515815260200191505060405180910390f35b341561020757600080fd5b61026460048080356000191690602001909190803590602001908201803590602001908080601f01602080910402602001604051908101604052809392919081815260200183838082843782019150505050505091905050610d0d565b005b341561027157600080fd5b61029d600480803573ffffffffffffffffffffffffffffffffffffffff16906020019091905050610dc8565b604051808215151515815260200191505060405180910390f35b34156102c257600080fd5b6102ca610e21565b6040518082815260200191505060405180910390f35b34156102eb57600080fd5b61038b60048080356000191690602001909190803590602001908201803590602001908080601f0160208091040260200160405190810160405280939291908181526020018383808284378201915050505050509190803590602001908201803590602001908080601f01602080910402602001604051908101604052809392919081815260200183838082843782019150505050505091905050610e27565b005b341561039857600080fd5b6103a0610e2c565b604051808215151515815260200191505060405180910390f35b34156103c557600080fd5b6103cd611176565b6040518082815260200191505060405180910390f35b34156103ee57600080fd5b610404600480803590602001909190505061117c565b604051808215151515815260200191505060405180910390f35b341561042957600080fd5b6104316111ef565b6040518082815260200191505060405180910390f35b341561045257600080fd5b61045a6111f5565b6040518082815260200191505060405180910390f35b341561047b57600080fd5b6104836111fb565b604051808215151515815260200191505060405180910390f35b34156104a857600080fd5b6104be600480803590602001909190505061120e565b604051808215151515815260200191505060405180910390f35b34156104e357600080fd5b6104eb611291565b604051808273ffffffffffffffffffffffffffffffffffffffff1673ffffffffffffffffffffffffffffffffffffffff16815260200191505060405180910390f35b341561053857600080fd5b6105406112b7565b604051808215151515815260200191505060405180910390f35b341561056557600080fd5b61056d6112ca565b6040518082815260200191505060405180910390f35b341561058e57600080fd5b6105a460048080359060200190919050506112d4565b604051808215151515815260200191505060405180910390f35b34156105c957600080fd5b6105d1611399565b6040518082815260200191505060405180910390f35b34156105f257600080fd5b6105fa61139f565b604051808273ffffffffffffffffffffffffffffffffffffffff1673ffffffffffffffffffffffffffffffffffffffff16815260200191505060405180910390f35b341561064757600080fd5b61065f600480803515159060200190919050506113c4565b604051808215151515815260200191505060405180910390f35b341561068457600080fd5b6106b0600480803573ffffffffffffffffffffffffffffffffffffffff16906020019091905050611404565b604051808215151515815260200191505060405180910390f35b34156106d557600080fd5b6106dd6115bd565b6040518082815260200191505060405180910390f35b34156106fe57600080fd5b61072a600480803573ffffffffffffffffffffffffffffffffffffffff169060200190919050506115c3565b604051808215151515815260200191505060405180910390f35b341561074f57600080fd5b61077b600480803573ffffffffffffffffffffffffffffffffffffffff16906020019091905050611762565b604051808215151515815260200191505060405180910390f35b34156107a057600080fd5b6107a8611a1e565b6040518082815260200191505060405180910390f35b6107c6611a24565b005b34156107d357600080fd5b6107db611b83565b604051808273ffffffffffffffffffffffffffffffffffffffff1673ffffffffffffffffffffffffffffffffffffffff16815260200191505060405180910390f35b341561082857600080fd5b610830611ba9565b6040518082815260200191505060405180910390f35b341561085157600080fd5b610859611bb3565b604051808215151515815260200191505060405180910390f35b341561087e57600080fd5b610886611c44565b604051808215151515815260200191505060405180910390f35b6108cc600480803573ffffffffffffffffffffffffffffffffffffffff16906020019091905050610937565b6040518082815260200191505060405180910390f35b34156108ed57600080fd5b6108f5611d8f565b604051808273ffffffffffffffffffffffffffffffffffffffff1673ffffffffffffffffffffffffffffffffffffffff16815260200191505060405180910390f35b600080600760009054906101000a900460ff1615151561095657600080fd5b600073ffffffffffffffffffffffffffffffffffffffff168373ffffffffffffffffffffffffffffffffffffffff161415151561099257600080fd5b3073ffffffffffffffffffffffffffffffffffffffff168373ffffffffffffffffffffffffffffffffffffffff16141515156109cd57600080fd5b600d60009054906101000a900473ffffffffffffffffffffffffffffffffffffffff1673ffffffffffffffffffffffffffffffffffffffff168373ffffffffffffffffffffffffffffffffffffffff1614151515610a2a57600080fd5b600c60009054906101000a900473ffffffffffffffffffffffffffffffffffffffff1673ffffffffffffffffffffffffffffffffffffffff163373ffffffffffffffffffffffffffffffffffffffff1614151515610a8757600080fd5b600d60009054906101000a900473ffffffffffffffffffffffffffffffffffffffff1673ffffffffffffffffffffffffffffffffffffffff166370a08231306000604051602001526040518263ffffffff167c0100000000000000000000000000000000000000000000000000000000028152600401808273ffffffffffffffffffffffffffffffffffffffff1673ffffffffffffffffffffffffffffffffffffffff168152602001915050602060405180830381600087803b1515610b4c57600080fd5b6102c65a03f11515610b5d57600080fd5b505050604051805190509050600081111515610b7857600080fd5b610b8183611db5565b915050919050565b600060011515610b9833610dc8565b1515141515610ba657600080fd5b60001515600760009054906101000a900460ff1615151415610bcb5760009050610c17565b6000600760006101000a81548160ff0219169083151502179055507fbcbdbf400d5c713d9679ffa947f717848591ab5a7d1608c49119db603c4942cb60405160405180910390a1600190505b90565b600060011515610c2933610dc8565b1515141515610c3757600080fd5b600073ffffffffffffffffffffffffffffffffffffffff16600160009054906101000a900473ffffffffffffffffffffffffffffffffffffffff1673ffffffffffffffffffffffffffffffffffffffff161415610c975760019050610d0a565b6000600160006101000a81548173ffffffffffffffffffffffffffffffffffffffff021916908373ffffffffffffffffffffffffffffffffffffffff1602179055507f670699162ea7ba4de638b5a57c2148aed9ee8bd69740a5e6a7db727e3886c88b60405160405180910390a1600190505b90565b610d1561203c565b73ffffffffffffffffffffffffffffffffffffffff163373ffffffffffffffffffffffffffffffffffffffff16141515610d4e57600080fd5b610d5781612356565b6009819055507f9a4995ee17b2680a456135346a62881986d9aa554c9a1ba3c82916f7e16f6f44826009546040518083600019166000191681526020018281526020019250505060405180910390a1601160009054906101000a900460ff1615610dc457610dc3611a24565b5b5050565b60008060009054906101000a900473ffffffffffffffffffffffffffffffffffffffff1673ffffffffffffffffffffffffffffffffffffffff168273ffffffffffffffffffffffffffffffffffffffff16149050919050565b60095481565b505050565b600080600060011515610e3e33610dc8565b1515141515610e4c57600080fd5b600d60009054906101000a900473ffffffffffffffffffffffffffffffffffffffff1673ffffffffffffffffffffffffffffffffffffffff166370a08231306000604051602001526040518263ffffffff167c0100000000000000000000000000000000000000000000000000000000028152600401808273ffffffffffffffffffffffffffffffffffffffff1673ffffffffffffffffffffffffffffffffffffffff168152602001915050602060405180830381600087803b1515610f1157600080fd5b6102c65a03f11515610f2257600080fd5b5050506040518051905091506000821415610f405760009250611171565b600d60009054906101000a900473ffffffffffffffffffffffffffffffffffffffff1673ffffffffffffffffffffffffffffffffffffffff16638da5cb5b6000604051602001526040518163ffffffff167c0100000000000000000000000000000000000000000000000000000000028152600401602060405180830381600087803b1515610fce57600080fd5b6102c65a03f11515610fdf57600080fd5b505050604051805190509050600073ffffffffffffffffffffffffffffffffffffffff168173ffffffffffffffffffffffffffffffffffffffff161415151561102757600080fd5b61103c82600e5461244390919063ffffffff16565b600e81905550600d60009054906101000a900473ffffffffffffffffffffffffffffffffffffffff1673ffffffffffffffffffffffffffffffffffffffff1663a9059cbb82846000604051602001526040518363ffffffff167c0100000000000000000000000000000000000000000000000000000000028152600401808373ffffffffffffffffffffffffffffffffffffffff1673ffffffffffffffffffffffffffffffffffffffff16815260200182815260200192505050602060405180830381600087803b151561110f57600080fd5b6102c65a03f1151561112057600080fd5b50505060405180519050151561113557600080fd5b7fbce3cc672456937708767d1642a17cacb1962753bd5cff46c8dbd377906a6b4b826040518082815260200191505060405180910390a1600192505b505090565b600b5481565b60006001151561118b33610dc8565b151514151561119957600080fd5b6000821115156111a857600080fd5b81600a819055507f838a23ac9e96487355a252492b0598f7ff9a62dc533be533083f9d87d8ed8281826040518082815260200191505060405180910390a160019050919050565b600e5481565b600f5481565b601160009054906101000a900460ff1681565b60006001151561121d33610dc8565b151514151561122b57600080fd5b6064821015801561123f5750620186a08211155b151561124a57600080fd5b816008819055507f6b361c807733cc94a3b7bda39c1c94dcc0511e91aa47b0f7f918068e93976890826040518082815260200191505060405180910390a160019050919050565b600c60009054906101000a900473ffffffffffffffffffffffffffffffffffffffff1681565b600760009054906101000a900460ff1681565b6000600f54905090565b6000600d60009054906101000a900473ffffffffffffffffffffffffffffffffffffffff1673ffffffffffffffffffffffffffffffffffffffff163373ffffffffffffffffffffffffffffffffffffffff161480156113335750600082115b151561133e57600080fd5b61135382600e5461245c90919063ffffffff16565b600e819055507f838a23ac9e96487355a252492b0598f7ff9a62dc533be533083f9d87d8ed8281826040518082815260200191505060405180910390a160019050919050565b60085481565b6000809054906101000a900473ffffffffffffffffffffffffffffffffffffffff1681565b6000600115156113d333610dc8565b15151415156113e157600080fd5b81601160006101000a81548160ff02191690831515021790555060019050919050565b60006001151561141333610dc8565b151514151561142157600080fd5b600073ffffffffffffffffffffffffffffffffffffffff168273ffffffffffffffffffffffffffffffffffffffff161415151561145d57600080fd5b3073ffffffffffffffffffffffffffffffffffffffff168273ffffffffffffffffffffffffffffffffffffffff161415151561149857600080fd5b600d60009054906101000a900473ffffffffffffffffffffffffffffffffffffffff1673ffffffffffffffffffffffffffffffffffffffff168273ffffffffffffffffffffffffffffffffffffffff16141515156114f557600080fd5b6000151561150283610dc8565b151514151561151057600080fd5b81600c60006101000a81548173ffffffffffffffffffffffffffffffffffffffff021916908373ffffffffffffffffffffffffffffffffffffffff1602179055507f0428ca271a7bee83fddcf583de5ba0a5a69f42cbe32587b07bb38925ed96de8d82604051808273ffffffffffffffffffffffffffffffffffffffff1673ffffffffffffffffffffffffffffffffffffffff16815260200191505060405180910390a160019050919050565b600a5481565b6000600115156115d233610dc8565b15151415156115e057600080fd5b600073ffffffffffffffffffffffffffffffffffffffff168273ffffffffffffffffffffffffffffffffffffffff161415151561161c57600080fd5b3073ffffffffffffffffffffffffffffffffffffffff168273ffffffffffffffffffffffffffffffffffffffff161415151561165757600080fd5b6000809054906101000a900473ffffffffffffffffffffffffffffffffffffffff1673ffffffffffffffffffffffffffffffffffffffff168273ffffffffffffffffffffffffffffffffffffffff16141515156116b357600080fd5b81600160006101000a81548173ffffffffffffffffffffffffffffffffffffffff021916908373ffffffffffffffffffffffffffffffffffffffff160217905550600160009054906101000a900473ffffffffffffffffffffffffffffffffffffffff1673ffffffffffffffffffffffffffffffffffffffff167f20f5afdf40bf7b43c89031a5d4369a30b159e512d164aa46124bcb706b4a1caf60405160405180910390a260019050919050565b60006001151561177133610dc8565b151514151561177f57600080fd5b600073ffffffffffffffffffffffffffffffffffffffff16600d60009054906101000a900473ffffffffffffffffffffffffffffffffffffffff1673ffffffffffffffffffffffffffffffffffffffff161415156117dc57600080fd5b600073ffffffffffffffffffffffffffffffffffffffff168273ffffffffffffffffffffffffffffffffffffffff161415151561181857600080fd5b3073ffffffffffffffffffffffffffffffffffffffff168273ffffffffffffffffffffffffffffffffffffffff161415151561185357600080fd5b600c60009054906101000a900473ffffffffffffffffffffffffffffffffffffffff1673ffffffffffffffffffffffffffffffffffffffff168273ffffffffffffffffffffffffffffffffffffffff16141515156118b057600080fd5b600015156118bd83610dc8565b15151415156118cb57600080fd5b61198e600261198060046119728673ffffffffffffffffffffffffffffffffffffffff1663313ce5676000604051602001526040518163ffffffff167c0100000000000000000000000000000000000000000000000000000000028152600401602060405180830381600087803b151561194457600080fd5b6102c65a03f1151561195557600080fd5b5050506040518051905060ff16601261244390919063ffffffff16565b61245c90919063ffffffff16565b61245c90919063ffffffff16565b600a0a600b819055506000600b541115156119a857600080fd5b81600d60006101000a81548173ffffffffffffffffffffffffffffffffffffffff021916908373ffffffffffffffffffffffffffffffffffffffff1602179055507f5daa87a0e9463431830481fd4b6e3403442dfb9a12b9c07597e9f61d50b633c860405160405180910390a160019050919050565b60105481565b611a2c61203c565b73ffffffffffffffffffffffffffffffffffffffff163373ffffffffffffffffffffffffffffffffffffffff161480611ab157506000809054906101000a900473ffffffffffffffffffffffffffffffffffffffff1673ffffffffffffffffffffffffffffffffffffffff163373ffffffffffffffffffffffffffffffffffffffff16145b1515611abc57600080fd5b611b80611c206040805190810160405280600381526020017f55524c0000000000000000000000000000000000000000000000000000000000815250608060405190810160405280604981526020017f6a736f6e2868747470733a2f2f6d696e2d6170692e63727970746f636f6d706181526020017f72652e636f6d2f646174612f70726963653f6673796d3d455448267473796d7381526020017f3d555344292e555344000000000000000000000000000000000000000000000081525061247a565b50565b600160009054906101000a900473ffffffffffffffffffffffffffffffffffffffff1681565b6000600e54905090565b600060011515611bc233610dc8565b1515141515611bd057600080fd5b60011515600760009054906101000a900460ff1615151415611bf55760009050611c41565b6001600760006101000a81548160ff0219169083151502179055507fe14916b4c867f32e91547d295f9b845b805d5b8c813daa3adbc1597f80a0c5eb60405160405180910390a1600190505b90565b6000600160009054906101000a900473ffffffffffffffffffffffffffffffffffffffff1673ffffffffffffffffffffffffffffffffffffffff163373ffffffffffffffffffffffffffffffffffffffff16141515611ca257600080fd5b336000806101000a81548173ffffffffffffffffffffffffffffffffffffffff021916908373ffffffffffffffffffffffffffffffffffffffff1602179055506000600160006101000a81548173ffffffffffffffffffffffffffffffffffffffff021916908373ffffffffffffffffffffffffffffffffffffffff1602179055506000809054906101000a900473ffffffffffffffffffffffffffffffffffffffff1673ffffffffffffffffffffffffffffffffffffffff167f624adc4c72536289dd9d5439ccdeccd8923cb9af95fb626b21935447c77b840760405160405180910390a26001905090565b600d60009054906101000a900473ffffffffffffffffffffffffffffffffffffffff1681565b6000806000611e1e600b54611e10612710611e02611df3600854611de560646009546129c090919063ffffffff16565b6129f390919063ffffffff16565b346129c090919063ffffffff16565b6129c090919063ffffffff16565b6129f390919063ffffffff16565b9150600a548210151515611e3157600080fd5b349050600c60009054906101000a900473ffffffffffffffffffffffffffffffffffffffff1673ffffffffffffffffffffffffffffffffffffffff166108fc829081150290604051600060405180830381858888f193505050501515611e9657600080fd5b611eab8160105461245c90919063ffffffff16565b601081905550611ec682600f5461245c90919063ffffffff16565b600f81905550600d60009054906101000a900473ffffffffffffffffffffffffffffffffffffffff1673ffffffffffffffffffffffffffffffffffffffff1663a9059cbb85846000604051602001526040518363ffffffff167c0100000000000000000000000000000000000000000000000000000000028152600401808373ffffffffffffffffffffffffffffffffffffffff1673ffffffffffffffffffffffffffffffffffffffff16815260200182815260200192505050602060405180830381600087803b1515611f9957600080fd5b6102c65a03f11515611faa57600080fd5b505050604051805190501515611fbf57600080fd5b7f8fafebcaf9d154343dad25669bfa277f4fbacd7ac6b0c4fed522580e040a0f33843484604051808473ffffffffffffffffffffffffffffffffffffffff1673ffffffffffffffffffffffffffffffffffffffff168152602001838152602001828152602001935050505060405180910390a18192505050919050565b600080600260009054906101000a900473ffffffffffffffffffffffffffffffffffffffff1673ffffffffffffffffffffffffffffffffffffffff1614806120ae575060006120ac600260009054906101000a900473ffffffffffffffffffffffffffffffffffffffff16612a09565b145b156120bf576120bd6000612a14565b505b600260009054906101000a900473ffffffffffffffffffffffffffffffffffffffff1673ffffffffffffffffffffffffffffffffffffffff166338cc48316000604051602001526040518163ffffffff167c0100000000000000000000000000000000000000000000000000000000028152600401602060405180830381600087803b151561214d57600080fd5b6102c65a03f1151561215e57600080fd5b5050506040518051905073ffffffffffffffffffffffffffffffffffffffff16600360009054906101000a900473ffffffffffffffffffffffffffffffffffffffff1673ffffffffffffffffffffffffffffffffffffffff161415156122a857600260009054906101000a900473ffffffffffffffffffffffffffffffffffffffff1673ffffffffffffffffffffffffffffffffffffffff166338cc48316000604051602001526040518163ffffffff167c0100000000000000000000000000000000000000000000000000000000028152600401602060405180830381600087803b151561224c57600080fd5b6102c65a03f1151561225d57600080fd5b50505060405180519050600360006101000a81548173ffffffffffffffffffffffffffffffffffffffff021916908373ffffffffffffffffffffffffffffffffffffffff1602179055505b600360009054906101000a900473ffffffffffffffffffffffffffffffffffffffff1673ffffffffffffffffffffffffffffffffffffffff1663c281d19e6000604051602001526040518163ffffffff167c0100000000000000000000000000000000000000000000000000000000028152600401602060405180830381600087803b151561233657600080fd5b6102c65a03f1151561234757600080fd5b50505060405180519050905090565b6000612360612ec6565b600080600085935060009150600092505b835183101561243757838381518110151561238857fe5b9060200101517f010000000000000000000000000000000000000000000000000000000000000090047f0100000000000000000000000000000000000000000000000000000000000000027f010000000000000000000000000000000000000000000000000000000000000090049050602e8114156124065761242a565b60308110158015612418575060398111155b156124295760308103600a83020191505b5b8280600101935050612371565b81945050505050919050565b600081831015151561245157fe5b818303905092915050565b600080828401905083811015151561247057fe5b8091505092915050565b6000806000600260009054906101000a900473ffffffffffffffffffffffffffffffffffffffff1673ffffffffffffffffffffffffffffffffffffffff1614806124ee575060006124ec600260009054906101000a900473ffffffffffffffffffffffffffffffffffffffff16612a09565b145b156124ff576124fd6000612a14565b505b600260009054906101000a900473ffffffffffffffffffffffffffffffffffffffff1673ffffffffffffffffffffffffffffffffffffffff166338cc48316000604051602001526040518163ffffffff167c0100000000000000000000000000000000000000000000000000000000028152600401602060405180830381600087803b151561258d57600080fd5b6102c65a03f1151561259e57600080fd5b5050506040518051905073ffffffffffffffffffffffffffffffffffffffff16600360009054906101000a900473ffffffffffffffffffffffffffffffffffffffff1673ffffffffffffffffffffffffffffffffffffffff161415156126e857600260009054906101000a900473ffffffffffffffffffffffffffffffffffffffff1673ffffffffffffffffffffffffffffffffffffffff166338cc48316000604051602001526040518163ffffffff167c0100000000000000000000000000000000000000000000000000000000028152600401602060405180830381600087803b151561268c57600080fd5b6102c65a03f1151561269d57600080fd5b50505060405180519050600360006101000a81548173ffffffffffffffffffffffffffffffffffffffff021916908373ffffffffffffffffffffffffffffffffffffffff1602179055505b600360009054906101000a900473ffffffffffffffffffffffffffffffffffffffff1673ffffffffffffffffffffffffffffffffffffffff1663524f3889856000604051602001526040518263ffffffff167c01000000000000000000000000000000000000000000000000000000000281526004018080602001828103825283818151815260200191508051906020019080838360005b8381101561279b578082015181840152602081019050612780565b50505050905090810190601f1680156127c85780820380516001836020036101000a031916815260200191505b5092505050602060405180830381600087803b15156127e657600080fd5b6102c65a03f115156127f757600080fd5b50505060405180519050905062030d403a02670de0b6b3a76400000181111561282657600060010291506129b8565b600360009054906101000a900473ffffffffffffffffffffffffffffffffffffffff1673ffffffffffffffffffffffffffffffffffffffff1663adf59f99828787876000604051602001526040518563ffffffff167c0100000000000000000000000000000000000000000000000000000000028152600401808481526020018060200180602001838103835285818151815260200191508051906020019080838360005b838110156128e65780820151818401526020810190506128cb565b50505050905090810190601f1680156129135780820380516001836020036101000a031916815260200191505b50838103825284818151815260200191508051906020019080838360005b8381101561294c578082015181840152602081019050612931565b50505050905090810190601f1680156129795780820380516001836020036101000a031916815260200191505b50955050505050506020604051808303818588803b151561299957600080fd5b6125ee5a03f115156129aa57600080fd5b505050506040518051905091505b509392505050565b600080828402905060008414806129e157508284828115156129de57fe5b04145b15156129e957fe5b8091505092915050565b60008183811515612a0057fe5b04905092915050565b6000813b9050919050565b600080612a34731d3b2638a7cc9f2cb3d298a3da7a90b67e5506ed612a09565b1115612ad657731d3b2638a7cc9f2cb3d298a3da7a90b67e5506ed600260006101000a81548173ffffffffffffffffffffffffffffffffffffffff021916908373ffffffffffffffffffffffffffffffffffffffff160217905550612acd6040805190810160405280600b81526020017f6574685f6d61696e6e6574000000000000000000000000000000000000000000815250612eac565b60019050612ea7565b6000612af573c03a2615d5efaf5f49f60b7bb6583eaec212fdf1612a09565b1115612b975773c03a2615d5efaf5f49f60b7bb6583eaec212fdf1600260006101000a81548173ffffffffffffffffffffffffffffffffffffffff021916908373ffffffffffffffffffffffffffffffffffffffff160217905550612b8e6040805190810160405280600c81526020017f6574685f726f707374656e330000000000000000000000000000000000000000815250612eac565b60019050612ea7565b6000612bb673b7a07bcf2ba2f2703b24c0691b5278999c59ac7e612a09565b1115612c585773b7a07bcf2ba2f2703b24c0691b5278999c59ac7e600260006101000a81548173ffffffffffffffffffffffffffffffffffffffff021916908373ffffffffffffffffffffffffffffffffffffffff160217905550612c4f6040805190810160405280600981526020017f6574685f6b6f76616e0000000000000000000000000000000000000000000000815250612eac565b60019050612ea7565b6000612c7773146500cfd35b22e4a392fe0adc06de1a1368ed48612a09565b1115612d195773146500cfd35b22e4a392fe0adc06de1a1368ed48600260006101000a81548173ffffffffffffffffffffffffffffffffffffffff021916908373ffffffffffffffffffffffffffffffffffffffff160217905550612d106040805190810160405280600b81526020017f6574685f72696e6b656279000000000000000000000000000000000000000000815250612eac565b60019050612ea7565b6000612d38736f485c8bf6fc43ea212e93bbf8ce046c7f1cb475612a09565b1115612d9c57736f485c8bf6fc43ea212e93bbf8ce046c7f1cb475600260006101000a81548173ffffffffffffffffffffffffffffffffffffffff021916908373ffffffffffffffffffffffffffffffffffffffff16021790555060019050612ea7565b6000612dbb7320e12a1f859b3feae5fb2a0a32c18f5a65555bbf612a09565b1115612e1f577320e12a1f859b3feae5fb2a0a32c18f5a65555bbf600260006101000a81548173ffffffffffffffffffffffffffffffffffffffff021916908373ffffffffffffffffffffffffffffffffffffffff16021790555060019050612ea7565b6000612e3e7351efaf4c8b3c9afbd5ab9f4bbc82784ab6ef8faa612a09565b1115612ea2577351efaf4c8b3c9afbd5ab9f4bbc82784ab6ef8faa600260006101000a81548173ffffffffffffffffffffffffffffffffffffffff021916908373ffffffffffffffffffffffffffffffffffffffff16021790555060019050612ea7565b600090505b919050565b8060049080519060200190612ec2929190612eda565b5050565b602060405190810160405280600081525090565b828054600181600116156101000203166002900490600052602060002090601f016020900481019282601f10612f1b57805160ff1916838001178555612f49565b82800160010185558215612f49579182015b82811115612f48578251825591602001919060010190612f2d565b5b509050612f569190612f5a565b5090565b612f7c91905b80821115612f78576000816000905550600101612f60565b5090565b905600a165627a7a7230582030a985e01c73cbe7dce2de6d4a45af46305818d0c0c9a2cd8250b504466a947f0029",
  "source": "pragma solidity ^0.4.0;\n\nimport \"./Owned.sol\";\nimport \"../oraclize/oraclizeAPI.sol\";\nimport \"./Math.sol\";\nimport \"./FinalizableToken.sol\";\n\ncontract FlexibleTokenSale is  Owned, usingOraclize {\n\n    using Math for uint256;\n\n    //\n    // Lifecycle\n    //\n    bool public suspended;\n\n    //\n    // Pricing\n    //\n    uint256 public tokenPrice;\n    uint256 public tokenPerEther;\n    uint256 public contributionMin;\n    uint256 public tokenConversionFactor;\n\n    //\n    // Wallets\n    //\n    address public walletAddress;\n\n    //\n    // Token\n    //\n    FinalizableToken public token;\n    uint256 public totalToken;\n\n    //\n    // Counters\n    //\n    uint256 public totalTokensSold;\n    uint256 public totalEtherCollected;\n\n    bool public updatePrice = true;\n\n\n\n    //\n    // Events\n    //\n    event Initialized();\n    event TokenPriceUpdated(uint256 _newValue);\n    event TokenPerEtherUpdated(bytes32 ID,uint256 _newValue);\n    event TokenMinUpdated(uint256 _newValue);\n    event TotalTokenUpdated(uint256 _newValue);\n    event WalletAddressUpdated(address _newAddress);\n    event SaleSuspended();\n    event SaleResumed();\n    event TokensPurchased(address _beneficiary, uint256 _cost, uint256 _tokens);\n    event TokensReclaimed(uint256 _amount);\n\n\n    function FlexibleTokenSale(address _walletAddress,uint _tokenPerEther) public\n    Owned()\n    {\n\n        require(_walletAddress != address(0));\n        require(_walletAddress != address(this));\n\n        walletAddress = _walletAddress;\n\n        suspended = false;\n        tokenPrice = 100;\n        tokenPerEther = _tokenPerEther;\n        contributionMin     = 5 * 10**18;\n        totalTokensSold     = 0;\n        totalEtherCollected = 0;\n    }\n\n    // Initialize should be called by the owner as part of the deployment + setup phase.\n    // It will associate the sale contract with the token contract and perform basic checks.\n    function initialize(FinalizableToken _token) external onlyOwner returns(bool) {\n        require(address(token) == address(0));\n        require(address(_token) != address(0));\n        require(address(_token) != address(this));\n        require(address(_token) != address(walletAddress));\n        require(isOwner(address(_token)) == false);\n        tokenConversionFactor = 10**(uint256(18).sub(_token.decimals()).add(4).add(2));\n        require(tokenConversionFactor > 0);\n        token = _token;\n\n        Initialized();\n\n        return true;\n    }\n\n\n    //\n    // Owner Configuation\n    //\n\n    // Allows the owner to change the wallet address which is used for collecting\n    // ether received during the token sale.\n    function setWalletAddress(address _walletAddress) external onlyOwner returns(bool) {\n        require(_walletAddress != address(0));\n        require(_walletAddress != address(this));\n        require(_walletAddress != address(token));\n        require(isOwner(_walletAddress) == false);\n\n        walletAddress = _walletAddress;\n\n        WalletAddressUpdated(_walletAddress);\n\n        return true;\n    }\n\n    //set token price in between $1.0 to $99.9, pass 111 for $1.11, 100000 for $1000\n    function setTokenPrice(uint _tokenPrice) external onlyOwner returns (bool) {\n        require(_tokenPrice >= 100 && _tokenPrice <= 100000);\n\n        tokenPrice=_tokenPrice;\n\n        TokenPriceUpdated(_tokenPrice);\n        return true;\n    }\n\n    function setMinToken(uint256 _minToken) external onlyOwner returns(bool) {\n        require(_minToken > 0);\n\n        contributionMin = _minToken;\n\n        TokenMinUpdated(_minToken);\n\n        return true;\n    }\n\n    //count total token for sale added in ICO address\n    function setTotalToken(uint256 _token) external  returns(bool) {\n        require(msg.sender == address(token) && _token > 0);\n\n        totalToken = totalToken.add(_token);\n\n        TokenMinUpdated(_token);\n\n        return true;\n    }\n\n    function getSoldTokenCount() view external  returns(uint256) {\n        return totalTokensSold;\n    }\n\n    function getTotalTokenCount() view external  returns(uint256) {\n        return totalToken;\n    }\n\n    // Allows the owner to suspend the sale until it is manually resumed at a later time.\n    function suspend() external onlyOwner returns(bool) {\n        if (suspended == true) {\n            return false;\n        }\n\n        suspended = true;\n\n        SaleSuspended();\n\n        return true;\n    }\n\n    // Allows the owner to resume the sale.\n    function resume() external onlyOwner returns(bool) {\n        if (suspended == false) {\n            return false;\n        }\n\n        suspended = false;\n\n        SaleResumed();\n\n        return true;\n    }\n\n\n    //\n    // Contributions\n    //\n\n    // Default payable function which can be used to purchase tokens.\n    function () payable public {\n        buyTokens(msg.sender);\n    }\n\n\n    // Allows the caller to purchase tokens for a specific beneficiary (proxy purchase).\n    function buyTokens(address _beneficiary) public payable returns (uint256) {\n        require(!suspended);\n\n\n        require(_beneficiary != address(0));\n        require(_beneficiary != address(this));\n        require(_beneficiary != address(token));\n\n        // We don't want to allow the wallet collecting ETH to\n        // directly be used to purchase tokens.\n        require(msg.sender != address(walletAddress));\n\n        // Check how many tokens are still available for sale.\n        uint256 saleBalance = token.balanceOf(address(this));\n        require(saleBalance > 0);\n\n\n        return buyTokensInternal(_beneficiary);\n    }\n\n    function startStopUpdateTokenPerEther(bool _value) public onlyOwner returns(bool){\n        updatePrice = _value;\n\n        return true;\n    }\n\n    function updateTokenPerEther() public payable {\n        require(msg.sender == oraclize_cbAddress() || msg.sender == owner);\n        oraclize_query(7200,\"URL\",\"json(https://min-api.cryptocompare.com/data/price?fsym=ETH&tsyms=USD).USD\");\n    }\n\n    function __callback(bytes32 myid, string result) public  {\n        require(msg.sender == oraclize_cbAddress());\n        tokenPerEther=stringToUint(result);\n        TokenPerEtherUpdated(myid,tokenPerEther);\n        if(updatePrice)\n        updateTokenPerEther();\n    }\n\n\n    function buyTokensInternal(address _beneficiary) internal returns (uint256) {\n\n        // Calculate how many tokens the contributor could purchase based on ETH received.\n\n        uint256 tokens =msg.value.mul(tokenPerEther.mul(100).div(tokenPrice)).mul(10000).div(tokenConversionFactor);\n        require(tokens >= contributionMin);\n\n        // This is the actual amount of ETH that can be sent to the wallet.\n        uint256 contribution =msg.value;\n        walletAddress.transfer(contribution);\n        totalEtherCollected = totalEtherCollected.add(contribution);\n\n        // Update our stats counters.\n        totalTokensSold = totalTokensSold.add(tokens);\n\n        // Transfer tokens to the beneficiary.\n        require(token.transfer(_beneficiary, tokens));\n\n        TokensPurchased(_beneficiary, msg.value, tokens);\n\n        return tokens;\n    }\n\n\n\n    function getUserTokenBalance(address _beneficiary) internal view returns (uint256) {\n        return token.balanceOf(_beneficiary);\n    }\n\n\n    // Allows the owner to take back the tokens that are assigned to the sale contract.\n    function reclaimTokens() external onlyOwner returns (bool) {\n        uint256 tokens = token.balanceOf(address(this));\n\n        if (tokens == 0) {\n            return false;\n        }\n\n        address tokenOwner = token.owner();\n        require(tokenOwner != address(0));\n\n        totalToken = totalToken.sub(tokens);\n\n        require(token.transfer(tokenOwner, tokens));\n\n        TokensReclaimed(tokens);\n\n        return true;\n    }\n\n    //Below function will convert string to integer removing decimal\n    function stringToUint(string s) pure internal returns (uint) {\n        bytes memory b = bytes(s);\n        uint i;\n        uint result1 = 0;\n        for (i = 0; i < b.length; i++) {\n            uint c = uint(b[i]);\n            if(c == 46)\n            {\n                // Do nothing --this will skip the decimal\n            }\n            else if (c >= 48 && c <= 57) {\n                result1 = result1 * 10 + (c - 48);\n            }\n        }\n        return result1;\n    }\n}",
  "sourcePath": "/var/www/html/erToken/contracts/internal/FlexibleTokenSale.sol",
  "compiler": {
    "name": "solc",
    "version": "0.4.19+commit.c4cbbb05.Emscripten.clang"
  },
  "schemaVersion": "1.0.1",
  "updatedAt": "2018-02-17T17:10:13.205Z"
}