{
  "contractName": "Owned",
  "abi": [
    {
      "constant": true,
      "inputs": [],
      "name": "owner",
      "outputs": [
        {
          "name": "",
          "type": "address"
        }
      ],
      "payable": false,
      "stateMutability": "view",
      "type": "function"
    },
    {
      "constant": true,
      "inputs": [],
      "name": "proposedOwner",
      "outputs": [
        {
          "name": "",
          "type": "address"
        }
      ],
      "payable": false,
      "stateMutability": "view",
      "type": "function"
    },
    {
      "inputs": [],
      "payable": false,
      "stateMutability": "nonpayable",
      "type": "constructor"
    },
    {
      "anonymous": false,
      "inputs": [
        {
          "indexed": true,
          "name": "_proposedOwner",
          "type": "address"
        }
      ],
      "name": "OwnershipTransferInitiated",
      "type": "event"
    },
    {
      "anonymous": false,
      "inputs": [
        {
          "indexed": true,
          "name": "_newOwner",
          "type": "address"
        }
      ],
      "name": "OwnershipTransferCompleted",
      "type": "event"
    },
    {
      "anonymous": false,
      "inputs": [],
      "name": "OwnershipTransferCanceled",
      "type": "event"
    },
    {
      "constant": true,
      "inputs": [
        {
          "name": "_address",
          "type": "address"
        }
      ],
      "name": "isOwner",
      "outputs": [
        {
          "name": "",
          "type": "bool"
        }
      ],
      "payable": false,
      "stateMutability": "view",
      "type": "function"
    },
    {
      "constant": false,
      "inputs": [
        {
          "name": "_proposedOwner",
          "type": "address"
        }
      ],
      "name": "initiateOwnershipTransfer",
      "outputs": [
        {
          "name": "",
          "type": "bool"
        }
      ],
      "payable": false,
      "stateMutability": "nonpayable",
      "type": "function"
    },
    {
      "constant": false,
      "inputs": [],
      "name": "cancelOwnershipTransfer",
      "outputs": [
        {
          "name": "",
          "type": "bool"
        }
      ],
      "payable": false,
      "stateMutability": "nonpayable",
      "type": "function"
    },
    {
      "constant": false,
      "inputs": [],
      "name": "completeOwnershipTransfer",
      "outputs": [
        {
          "name": "",
          "type": "bool"
        }
      ],
      "payable": false,
      "stateMutability": "nonpayable",
      "type": "function"
    }
  ],
  "bytecode": "0x6060604052341561000f57600080fd5b336000806101000a81548173ffffffffffffffffffffffffffffffffffffffff021916908373ffffffffffffffffffffffffffffffffffffffff1602179055506106d08061005e6000396000f300606060405260043610610078576000357c0100000000000000000000000000000000000000000000000000000000900463ffffffff16806323452b9c1461007d5780632f54bf6e146100aa5780638da5cb5b146100fb578063c0b6f56114610150578063d153b60c146101a1578063e71a7811146101f6575b600080fd5b341561008857600080fd5b610090610223565b604051808215151515815260200191505060405180910390f35b34156100b557600080fd5b6100e1600480803573ffffffffffffffffffffffffffffffffffffffff16906020019091905050610316565b604051808215151515815260200191505060405180910390f35b341561010657600080fd5b61010e61036f565b604051808273ffffffffffffffffffffffffffffffffffffffff1673ffffffffffffffffffffffffffffffffffffffff16815260200191505060405180910390f35b341561015b57600080fd5b610187600480803573ffffffffffffffffffffffffffffffffffffffff16906020019091905050610394565b604051808215151515815260200191505060405180910390f35b34156101ac57600080fd5b6101b4610533565b604051808273ffffffffffffffffffffffffffffffffffffffff1673ffffffffffffffffffffffffffffffffffffffff16815260200191505060405180910390f35b341561020157600080fd5b610209610559565b604051808215151515815260200191505060405180910390f35b60006001151561023233610316565b151514151561024057600080fd5b600073ffffffffffffffffffffffffffffffffffffffff16600160009054906101000a900473ffffffffffffffffffffffffffffffffffffffff1673ffffffffffffffffffffffffffffffffffffffff1614156102a05760019050610313565b6000600160006101000a81548173ffffffffffffffffffffffffffffffffffffffff021916908373ffffffffffffffffffffffffffffffffffffffff1602179055507f670699162ea7ba4de638b5a57c2148aed9ee8bd69740a5e6a7db727e3886c88b60405160405180910390a1600190505b90565b60008060009054906101000a900473ffffffffffffffffffffffffffffffffffffffff1673ffffffffffffffffffffffffffffffffffffffff168273ffffffffffffffffffffffffffffffffffffffff16149050919050565b6000809054906101000a900473ffffffffffffffffffffffffffffffffffffffff1681565b6000600115156103a333610316565b15151415156103b157600080fd5b600073ffffffffffffffffffffffffffffffffffffffff168273ffffffffffffffffffffffffffffffffffffffff16141515156103ed57600080fd5b3073ffffffffffffffffffffffffffffffffffffffff168273ffffffffffffffffffffffffffffffffffffffff161415151561042857600080fd5b6000809054906101000a900473ffffffffffffffffffffffffffffffffffffffff1673ffffffffffffffffffffffffffffffffffffffff168273ffffffffffffffffffffffffffffffffffffffff161415151561048457600080fd5b81600160006101000a81548173ffffffffffffffffffffffffffffffffffffffff021916908373ffffffffffffffffffffffffffffffffffffffff160217905550600160009054906101000a900473ffffffffffffffffffffffffffffffffffffffff1673ffffffffffffffffffffffffffffffffffffffff167f20f5afdf40bf7b43c89031a5d4369a30b159e512d164aa46124bcb706b4a1caf60405160405180910390a260019050919050565b600160009054906101000a900473ffffffffffffffffffffffffffffffffffffffff1681565b6000600160009054906101000a900473ffffffffffffffffffffffffffffffffffffffff1673ffffffffffffffffffffffffffffffffffffffff163373ffffffffffffffffffffffffffffffffffffffff161415156105b757600080fd5b336000806101000a81548173ffffffffffffffffffffffffffffffffffffffff021916908373ffffffffffffffffffffffffffffffffffffffff1602179055506000600160006101000a81548173ffffffffffffffffffffffffffffffffffffffff021916908373ffffffffffffffffffffffffffffffffffffffff1602179055506000809054906101000a900473ffffffffffffffffffffffffffffffffffffffff1673ffffffffffffffffffffffffffffffffffffffff167f624adc4c72536289dd9d5439ccdeccd8923cb9af95fb626b21935447c77b840760405160405180910390a260019050905600a165627a7a7230582057dd7dafe15921d31d36f7668961d481791145d01f180f88ea5c7045a6df0f380029",
  "source": "pragma solidity ^0.4.19;\ncontract Owned {\n\n    address public owner;\n    address public proposedOwner;\n\n    event OwnershipTransferInitiated(address indexed _proposedOwner);\n    event OwnershipTransferCompleted(address indexed _newOwner);\n    event OwnershipTransferCanceled();\n\n\n    function Owned() public\n    {\n        owner = msg.sender;\n    }\n\n\n    modifier onlyOwner() {\n        require(isOwner(msg.sender) == true);\n        _;\n    }\n\n\n    function isOwner(address _address) public view returns (bool) {\n        return (_address == owner);\n    }\n\n\n    function initiateOwnershipTransfer(address _proposedOwner) public onlyOwner returns (bool) {\n        require(_proposedOwner != address(0));\n        require(_proposedOwner != address(this));\n        require(_proposedOwner != owner);\n\n        proposedOwner = _proposedOwner;\n\n        OwnershipTransferInitiated(proposedOwner);\n\n        return true;\n    }\n\n\n    function cancelOwnershipTransfer() public onlyOwner returns (bool) {\n        if (proposedOwner == address(0)) {\n            return true;\n        }\n\n        proposedOwner = address(0);\n\n        OwnershipTransferCanceled();\n\n        return true;\n    }\n\n\n    function completeOwnershipTransfer() public returns (bool) {\n        require(msg.sender == proposedOwner);\n\n        owner = msg.sender;\n        proposedOwner = address(0);\n\n        OwnershipTransferCompleted(owner);\n\n        return true;\n    }\n}\n",
  "sourcePath": "/var/www/html/erToken/contracts/internal/Owned.sol",
  "compiler": {
    "name": "solc",
    "version": "0.4.19+commit.c4cbbb05.Emscripten.clang"
  },
  "schemaVersion": "1.0.1",
  "updatedAt": "2018-02-17T17:10:13.200Z"
}